{
  "contractName": "DocumentVerification",
  "abi": [
    {
      "anonymous": false,
      "inputs": [
        {
          "indexed": true,
          "internalType": "string",
          "name": "documentHash",
          "type": "string"
        },
        {
          "indexed": true,
          "internalType": "address",
          "name": "owner",
          "type": "address"
        },
        {
          "indexed": false,
          "internalType": "uint256",
          "name": "timestamp",
          "type": "uint256"
        }
      ],
      "name": "DocumentAdded",
      "type": "event"
    },
    {
      "inputs": [
        {
          "internalType": "string",
          "name": "_documentHash",
          "type": "string"
        }
      ],
      "name": "addDocument",
      "outputs": [],
      "stateMutability": "nonpayable",
      "type": "function"
    },
    {
      "inputs": [
        {
          "internalType": "string",
          "name": "_documentHash",
          "type": "string"
        }
      ],
      "name": "verifyDocument",
      "outputs": [
        {
          "internalType": "bool",
          "name": "exists",
          "type": "bool"
        },
        {
          "internalType": "address",
          "name": "owner",
          "type": "address"
        },
        {
          "internalType": "uint256",
          "name": "timestamp",
          "type": "uint256"
        }
      ],
      "stateMutability": "view",
      "type": "function",
      "constant": true
    }
  ],
  "bytecode": "0x608060405234801561001057600080fd5b50610a9a806100206000396000f3fe608060405234801561001057600080fd5b50600436106100365760003560e01c8063beee5eb71461003b578063f740e0451461006d575b600080fd5b61005560048036038101906100509190610505565b610089565b604051610064939291906105c3565b60405180910390f35b61008760048036038101906100829190610505565b6101e4565b005b60008060008060008560405161009f919061066b565b90815260200160405180910390206040518060600160405290816000820180546100c8906106b1565b80601f01602080910402602001604051908101604052809291908181526020018280546100f4906106b1565b80156101415780601f1061011657610100808354040283529160200191610141565b820191906000526020600020905b81548152906001019060200180831161012457829003601f168201915b505050505081526020016001820160009054906101000a900473ffffffffffffffffffffffffffffffffffffffff1673ffffffffffffffffffffffffffffffffffffffff1673ffffffffffffffffffffffffffffffffffffffff168152602001600282015481525050905060008160400151036101c9576000806000935093509350506101dd565b600181602001518260400151935093509350505b9193909250565b6000815111610228576040517f08c379a000000000000000000000000000000000000000000000000000000000815260040161021f9061073f565b60405180910390fd5b60008082604051610239919061066b565b9081526020016040518091039020600201541461028b576040517f08c379a0000000000000000000000000000000000000000000000000000000008152600401610282906107ab565b60405180910390fd5b60405180606001604052808281526020013373ffffffffffffffffffffffffffffffffffffffff168152602001428152506000826040516102cc919061066b565b908152602001604051809103902060008201518160000190816102ef9190610977565b5060208201518160010160006101000a81548173ffffffffffffffffffffffffffffffffffffffff021916908373ffffffffffffffffffffffffffffffffffffffff160217905550604082015181600201559050503373ffffffffffffffffffffffffffffffffffffffff1681604051610369919061066b565b60405180910390207fc6b68a4d2229a04f4ab4f6fa272ce60f973c078b7f2b0e6feb7493dd90b7dc04426040516103a09190610a49565b60405180910390a350565b6000604051905090565b600080fd5b600080fd5b600080fd5b600080fd5b6000601f19601f8301169050919050565b7f4e487b7100000000000000000000000000000000000000000000000000000000600052604160045260246000fd5b610412826103c9565b810181811067ffffffffffffffff82111715610431576104306103da565b5b80604052505050565b60006104446103ab565b90506104508282610409565b919050565b600067ffffffffffffffff8211156104705761046f6103da565b5b610479826103c9565b9050602081019050919050565b82818337600083830152505050565b60006104a86104a384610455565b61043a565b9050828152602081018484840111156104c4576104c36103c4565b5b6104cf848285610486565b509392505050565b600082601f8301126104ec576104eb6103bf565b5b81356104fc848260208601610495565b91505092915050565b60006020828403121561051b5761051a6103b5565b5b600082013567ffffffffffffffff811115610539576105386103ba565b5b610545848285016104d7565b91505092915050565b60008115159050919050565b6105638161054e565b82525050565b600073ffffffffffffffffffffffffffffffffffffffff82169050919050565b600061059482610569565b9050919050565b6105a481610589565b82525050565b6000819050919050565b6105bd816105aa565b82525050565b60006060820190506105d8600083018661055a565b6105e5602083018561059b565b6105f260408301846105b4565b949350505050565b600081519050919050565b600081905092915050565b60005b8381101561062e578082015181840152602081019050610613565b60008484015250505050565b6000610645826105fa565b61064f8185610605565b935061065f818560208601610610565b80840191505092915050565b6000610677828461063a565b915081905092915050565b7f4e487b7100000000000000000000000000000000000000000000000000000000600052602260045260246000fd5b600060028204905060018216806106c957607f821691505b6020821081036106dc576106db610682565b5b50919050565b600082825260208201905092915050565b7f446f63756d656e7420686173682063616e6e6f7420626520656d707479000000600082015250565b6000610729601d836106e2565b9150610734826106f3565b602082019050919050565b600060208201905081810360008301526107588161071c565b9050919050565b7f446f63756d656e7420616c726561647920657869737473000000000000000000600082015250565b60006107956017836106e2565b91506107a08261075f565b602082019050919050565b600060208201905081810360008301526107c481610788565b9050919050565b60008190508160005260206000209050919050565b60006020601f8301049050919050565b600082821b905092915050565b60006008830261082d7fffffffffffffffffffffffffffffffffffffffffffffffffffffffffffffffff826107f0565b61083786836107f0565b95508019841693508086168417925050509392505050565b6000819050919050565b600061087461086f61086a846105aa565b61084f565b6105aa565b9050919050565b6000819050919050565b61088e83610859565b6108a261089a8261087b565b8484546107fd565b825550505050565b600090565b6108b76108aa565b6108c2818484610885565b505050565b5b818110156108e6576108db6000826108af565b6001810190506108c8565b5050565b601f82111561092b576108fc816107cb565b610905846107e0565b81016020851015610914578190505b610928610920856107e0565b8301826108c7565b50505b505050565b600082821c905092915050565b600061094e60001984600802610930565b1980831691505092915050565b6000610967838361093d565b9150826002028217905092915050565b610980826105fa565b67ffffffffffffffff811115610999576109986103da565b5b6109a382546106b1565b6109ae8282856108ea565b600060209050601f8311600181146109e157600084156109cf578287015190505b6109d9858261095b565b865550610a41565b601f1984166109ef866107cb565b60005b82811015610a17578489015182556001820191506020850194506020810190506109f2565b86831015610a345784890151610a30601f89168261093d565b8355505b6001600288020188555050505b505050505050565b6000602082019050610a5e60008301846105b4565b9291505056fea2646970667358221220340115c07af5248a3ca3a7542547923e83afa13fe579f77c6cd3c7d469bf1e7b64736f6c63430008150033",
  "immutableReferences": {},
  "source": "// SPDX-License-Identifier: MIT\npragma solidity ^0.8.21;\n\ncontract DocumentVerification {\n    struct Document {\n        string documentHash;\n        address owner;\n        uint256 timestamp;\n    }\n\n    mapping(string => Document) private documents;\n\n    event DocumentAdded(string indexed documentHash, address indexed owner, uint256 timestamp);\n\n    /// @notice Add a new document to the verification system.\n    /// @param _documentHash The hash of the document being added.\n    function addDocument(string memory _documentHash) public {\n        require(bytes(_documentHash).length > 0, \"Document hash cannot be empty\");\n        require(documents[_documentHash].timestamp == 0, \"Document already exists\");\n\n        documents[_documentHash] = Document(_documentHash, msg.sender, block.timestamp);\n\n        emit DocumentAdded(_documentHash, msg.sender, block.timestamp);\n    }\n\n    /// @notice Verify if a document exists in the system.\n    /// @param _documentHash The hash of the document to verify.\n    /// @return exists Boolean indicating if the document exists.\n    /// @return owner Address of the document owner.\n    /// @return timestamp Timestamp when the document was added.\n    function verifyDocument(string memory _documentHash)\n        public\n        view\n        returns (bool exists, address owner, uint256 timestamp)\n    {\n        Document memory doc = documents[_documentHash];\n        if (doc.timestamp == 0) {\n            return (false, address(0), 0);\n        }\n        return (true, doc.owner, doc.timestamp);\n    }\n}\n",
  "sourcePath": "C:\\Users\\Arsh Bhushan\\Desktop\\document-verification-blockchain\\contracts\\DocumentVerification.sol",
  "compiler": {
    "name": "solc",
    "version": "0.8.21+commit.d9974bed.Emscripten.clang"
  },
  "schemaVersion": "3.4.16",
  "updatedAt": "2025-01-14T07:23:14.535Z",
  "networkType": "ethereum",
  "devdoc": {
    "kind": "dev",
    "methods": {
      "addDocument(string)": {
        "params": {
          "_documentHash": "The hash of the document being added."
        }
      },
      "verifyDocument(string)": {
        "params": {
          "_documentHash": "The hash of the document to verify."
        },
        "returns": {
          "exists": "Boolean indicating if the document exists.",
          "owner": "Address of the document owner.",
          "timestamp": "Timestamp when the document was added."
        }
      }
    },
    "version": 1
  },
  "userdoc": {
    "kind": "user",
    "methods": {
      "addDocument(string)": {
        "notice": "Add a new document to the verification system."
      },
      "verifyDocument(string)": {
        "notice": "Verify if a document exists in the system."
      }
    },
    "version": 1
  }
}